{
  "_format": "hh-sol-artifact-1",
  "contractName": "Assessment",
  "sourceName": "contracts/Assessment.sol",
  "abi": [
    {
      "anonymous": false,
      "inputs": [
        {
          "indexed": true,
          "internalType": "address",
          "name": "user",
          "type": "address"
        },
        {
          "indexed": false,
          "internalType": "string",
          "name": "action",
          "type": "string"
        },
        {
          "indexed": false,
          "internalType": "uint256",
          "name": "amount",
          "type": "uint256"
        }
      ],
      "name": "StockTransaction",
      "type": "event"
    },
    {
      "inputs": [
        {
          "internalType": "uint256",
          "name": "amount",
          "type": "uint256"
        }
      ],
      "name": "buyStocks",
      "outputs": [],
      "stateMutability": "nonpayable",
      "type": "function"
    },
    {
      "inputs": [],
      "name": "getMessage",
      "outputs": [
        {
          "internalType": "string",
          "name": "",
          "type": "string"
        }
      ],
      "stateMutability": "view",
      "type": "function"
    },
    {
      "inputs": [],
      "name": "getValue",
      "outputs": [
        {
          "internalType": "uint256",
          "name": "",
          "type": "uint256"
        }
      ],
      "stateMutability": "view",
      "type": "function"
    },
    {
      "inputs": [
        {
          "internalType": "uint256",
          "name": "amount",
          "type": "uint256"
        }
      ],
      "name": "sellStocks",
      "outputs": [],
      "stateMutability": "nonpayable",
      "type": "function"
    },
    {
      "inputs": [
        {
          "internalType": "string",
          "name": "newMessage",
          "type": "string"
        }
      ],
      "name": "setMessage",
      "outputs": [],
      "stateMutability": "nonpayable",
      "type": "function"
    }
  ],
  "bytecode": "0x608060405234801561001057600080fd5b50610a8d806100206000396000f3fe608060405234801561001057600080fd5b50600436106100575760003560e01c8063209652551461005c578063368b87721461007a5780634b328e7a146100965780634baa70c4146100b2578063ce6d41de146100ce575b600080fd5b6100646100ec565b60405161007191906102ca565b60405180910390f35b610094600480360381019061008f919061043f565b6100f5565b005b6100b060048036038101906100ab91906104b4565b610108565b005b6100cc60048036038101906100c791906104b4565b610171565b005b6100d661021f565b6040516100e39190610560565b60405180910390f35b60008054905090565b8060019081610104919061078e565b5050565b80600080828254610119919061088f565b925050819055503373ffffffffffffffffffffffffffffffffffffffff167fb1214ae2f0010814981fbabfc942276a8506fd01c5f2e47140af7b5dcad56d5482604051610166919061090f565b60405180910390a250565b8060005410156101b6576040517f08c379a00000000000000000000000000000000000000000000000000000000081526004016101ad90610989565b60405180910390fd5b806000808282546101c791906109a9565b925050819055503373ffffffffffffffffffffffffffffffffffffffff167fb1214ae2f0010814981fbabfc942276a8506fd01c5f2e47140af7b5dcad56d54826040516102149190610a29565b60405180910390a250565b60606001805461022e906105b1565b80601f016020809104026020016040519081016040528092919081815260200182805461025a906105b1565b80156102a75780601f1061027c576101008083540402835291602001916102a7565b820191906000526020600020905b81548152906001019060200180831161028a57829003601f168201915b5050505050905090565b6000819050919050565b6102c4816102b1565b82525050565b60006020820190506102df60008301846102bb565b92915050565b6000604051905090565b600080fd5b600080fd5b600080fd5b600080fd5b6000601f19601f8301169050919050565b7f4e487b7100000000000000000000000000000000000000000000000000000000600052604160045260246000fd5b61034c82610303565b810181811067ffffffffffffffff8211171561036b5761036a610314565b5b80604052505050565b600061037e6102e5565b905061038a8282610343565b919050565b600067ffffffffffffffff8211156103aa576103a9610314565b5b6103b382610303565b9050602081019050919050565b82818337600083830152505050565b60006103e26103dd8461038f565b610374565b9050828152602081018484840111156103fe576103fd6102fe565b5b6104098482856103c0565b509392505050565b600082601f830112610426576104256102f9565b5b81356104368482602086016103cf565b91505092915050565b600060208284031215610455576104546102ef565b5b600082013567ffffffffffffffff811115610473576104726102f4565b5b61047f84828501610411565b91505092915050565b610491816102b1565b811461049c57600080fd5b50565b6000813590506104ae81610488565b92915050565b6000602082840312156104ca576104c96102ef565b5b60006104d88482850161049f565b91505092915050565b600081519050919050565b600082825260208201905092915050565b60005b8381101561051b578082015181840152602081019050610500565b60008484015250505050565b6000610532826104e1565b61053c81856104ec565b935061054c8185602086016104fd565b61055581610303565b840191505092915050565b6000602082019050818103600083015261057a8184610527565b905092915050565b7f4e487b7100000000000000000000000000000000000000000000000000000000600052602260045260246000fd5b600060028204905060018216806105c957607f821691505b6020821081036105dc576105db610582565b5b50919050565b60008190508160005260206000209050919050565b60006020601f8301049050919050565b600082821b905092915050565b6000600883026106447fffffffffffffffffffffffffffffffffffffffffffffffffffffffffffffffff82610607565b61064e8683610607565b95508019841693508086168417925050509392505050565b6000819050919050565b600061068b610686610681846102b1565b610666565b6102b1565b9050919050565b6000819050919050565b6106a583610670565b6106b96106b182610692565b848454610614565b825550505050565b600090565b6106ce6106c1565b6106d981848461069c565b505050565b5b818110156106fd576106f26000826106c6565b6001810190506106df565b5050565b601f82111561074257610713816105e2565b61071c846105f7565b8101602085101561072b578190505b61073f610737856105f7565b8301826106de565b50505b505050565b600082821c905092915050565b600061076560001984600802610747565b1980831691505092915050565b600061077e8383610754565b9150826002028217905092915050565b610797826104e1565b67ffffffffffffffff8111156107b0576107af610314565b5b6107ba82546105b1565b6107c5828285610701565b600060209050601f8311600181146107f857600084156107e6578287015190505b6107f08582610772565b865550610858565b601f198416610806866105e2565b60005b8281101561082e57848901518255600182019150602085019450602081019050610809565b8683101561084b5784890151610847601f891682610754565b8355505b6001600288020188555050505b505050505050565b7f4e487b7100000000000000000000000000000000000000000000000000000000600052601160045260246000fd5b600061089a826102b1565b91506108a5836102b1565b92508282019050808211156108bd576108bc610860565b5b92915050565b7f6275790000000000000000000000000000000000000000000000000000000000600082015250565b60006108f96003836104ec565b9150610904826108c3565b602082019050919050565b60006040820190508181036000830152610928816108ec565b905061093760208301846102bb565b92915050565b7f4e6f7420656e6f7567682073746f636b7320746f2073656c6c00000000000000600082015250565b60006109736019836104ec565b915061097e8261093d565b602082019050919050565b600060208201905081810360008301526109a281610966565b9050919050565b60006109b4826102b1565b91506109bf836102b1565b92508282039050818111156109d7576109d6610860565b5b92915050565b7f73656c6c00000000000000000000000000000000000000000000000000000000600082015250565b6000610a136004836104ec565b9150610a1e826109dd565b602082019050919050565b60006040820190508181036000830152610a4281610a06565b9050610a5160208301846102bb565b9291505056fea26469706673582212205e132a186d8634a8512cb4157fd57a668d73bc657ecc7b4f2ec318084559c77364736f6c63430008110033",
  "linkReferences": {},
  "deployedLinkReferences": {}
}